:020000040800F2
:1000000010100020010100081D29000853220008DB
:1000100019290008F70B0008F92E0008000000005D
:10002000000000000000000000000000852900081A
:10003000FB0B000800000000592900088729000870
:100040001B0100081B0100081B0100081B01000820
:100050001B0100081B0100081B0100081B01000810
:100060001B0100081B0100081B0100081B01000800
:100070001B0100081B0100081B0100081B010008F0
:100080001B0100081B0100081B0100081B010008E0
:100090001B0100081B0100081B0100081B010008D0
:1000A0001B0100081B0100081B0100081B010008C0
:1000B0007D2A00081B0100088D2A00081B0100088A
:1000C0001B0100081B0100081B0100081B010008A0
:1000D0001B010008F12E00081B0100081B0100088D
:1000E0001B0100081B0100081B010008DFF80CD0F1
:1000F00000F028FD00480047AD5A0008101000200D
:100100000648804706480047FEE7FEE7FEE7FEE7B1
:10011000FEE7FEE7FEE7FEE7FEE7FEE7252A00082A
:10012000ED000008202A04DB203A21FA02F0002129
:10013000704721FA02F3D040C2F1200291400843F7
:1001400019467047D2B201E000F8012B491EFBD2DC
:1001500070470022F6E710B513460A4604461946D2
:10016000FFF7F0FF204610BD30B5044600200346DF
:1001700000E05B1C934203D2E05CCD5C401BF8D0F6
:1001800030BDF0B480EA0102D40F4200B2EB410F5F
:1001900002D20246084611464A0042D0C30DDDB2E3
:1001A000C1F3C752AD1A202D35DAC1F3160141F45F
:1001B000000204B15242C5F1200602FA06F12A41BA
:1001C0001044B3EBD05F23D0C4B1012DA0EBC350DA
:1001D00009DCF0BC4FF0004202EAC352DBB200F58A
:1001E000000000F01DBB400000F1807000EBC35028
:1001F000A0F1807040EAD170490009E0490841EA65
:10020000C071A0EBC35000F50000400800EBC350E4
:10021000F0BC00F0FCBA6142012202EB4101001B7C
:10022000F6E7F0BC704781F00041AAE780F000409B
:10023000A7E780EA010210B502F00043400022D097
:100240004A001FD0010E01EB1261C0F35600C2F349
:10025000560240F4000042F40002A0FB0220000419
:100260007F39140400D0401C50EA124001D44000F1
:10027000491EC2B20C0604EBD010401C4008802A74
:1002800002D003E0002010BD20F00100002900DAB8
:100290000020184310BD30B480EA010202F000458E
:1002A00030F0004221F0004013D090B1C30DD40DC6
:1002B000C2F31601C0F31600E41A41F4000140F441
:1002C00000027D34914201D3641C00E04900002CFF
:1002D00002DA30BC002070474FF400000023914246
:1002E00001D3891A034340084FEA4101F7D151B1C4
:1002F000914202D14FF0004105E002D24FF00101DE
:1003000001E06FF0010103EBC450284430BC00F061
:100310007EBA2DE9FE4F804681EA0300C00F0C46ED
:10032000009021F0004123F00045B8EB0200A94104
:1003300005D24046214690461C460B46024623F015
:100340000040104347D0270DC7F30A00C3F30A51FA
:100350000290401A019040286BDAC3F3130040F476
:10036000801B0098924620B10023D2EB030A63EB76
:100370000B0B01985946C0F14002504600F026FA96
:1003800006460D4650465946019A00F02EFA10EBEB
:1003900008006141002487EA115284EAE7731A4396
:1003A00040D0009A62B3019A012A4FEA075215DC45
:1003B000001B61EB02014FF0004202EA0752CDE957
:1003C0000042001C41F5801132462B4600F083FAB2
:1003D00003B0BDE8F08F40462146F9E7001B61EB12
:1003E0000201001C41F5801300185B412018A2F5A2
:1003F000001747EB030140EAD570B6196D4111E0D3
:100400006D084FEA360645EAC0754FEA0752001BF1
:1004100061EB0201001C41F5801149084FEA3000F0
:100420000019514132462B4603B0BDE8F04F00F0B1
:1004300043BA0098012240000023D0EB020263EB94
:10044000E073009821464FEAE074B8EB000061EBDE
:100450000401E9E783F000435BE781F0004158E7DE
:100460002DE9FE4F81EA030404F0004421F000412D
:1004700000944FF0000B23F0004350EA01045ED0DB
:1004800052EA03045BD0C3F30A54C1F30A552C4467
:10049000A4F2F3340194A0FB0254C1F3130141F41C
:1004A0008011C3F3130343F4801301FB024400FBE8
:1004B000034E840A970A44EA815447EA8357A4FB0F
:1004C000076802958D0A05FB07854FEA932C04FB0C
:1004D0000C542705029D4FEA065847EA1637B5EB3C
:1004E00008056EEB070C870E920E47EA811742EA69
:1004F0008312A7FB0201B6EB0B0164EB00042B0D8A
:1005000043EA0C335E1844EB1C50DA465146E7FBD5
:100510000201C5F313044FEA0B3343EA14534FEAC5
:100520000432019C43EA0603A4F10C040294009CEB
:10053000CDE900B400F0CFF903B0BDE8F08F0020A2
:100540000146F9E72DE9F04D81EA030404F0004B80
:1005500021F0004514464FF0000A23F0004150EA14
:10056000050220D054EA01021DD0C5F30A57024605
:10057000C5F31303C1F31300C1F30A5640F4801509
:1005800043F48013A7EB0608101BD64608F2FD388B
:1005900073EB050002D308F1010801E092185B41FA
:1005A000B8F1000F03DA00200146BDE8F08D00200D
:1005B0004FF48011064684460EE0171B73EB0507C7
:1005C00005D3121B63EB050306434CEA010C4908F3
:1005D0004FEA300092185B4150EA0107EDD152EA30
:1005E000030012D082EA040083EA0501084305D023
:1005F000101BAB4106D20122002306E000224FF07F
:10060000004302E06FF0010253101AEB06004CEBBE
:10061000085110EB0A0041EB0B01BDE8F04D00F072
:100620004BB9C10F80EAE0700844CA079623002145
:1006300000F0F6B896230022114600F0F1B80EB58E
:1006400040F2334102910021CDE900110A460B46E8
:1006500000F041F903B000BD00F0004220F000407E
:10066000C10DC0F3160040F400007F2901DA00201C
:100670007047962903DCC1F19601C84001E0963924
:100680008840002AF4D04042704720F00040C10D5D
:10069000C0F3160040F400007F2901DA0020704703
:1006A000962903DCC1F19601C8407047963988400D
:1006B0007047C1F30A5210B5C1F3130140F2FF3382
:1006C00041F480119A4201DA002010BD40F2334318
:1006D0009A42A2F2334203DC5242FFF723FD10BDDF
:1006E000904010BD00F0004230F000400AD0C10D33
:1006F00001F56071C0F3160042EA0151C2084007DB
:1007000011437047002001467047000030B5041EB9
:1007100071F1000404DB4FF00044404264EB01013E
:10072000141E73F1000405DB1C464FF000435242D7
:1007300063EB04038B4208BF824230BD30B5041E18
:1007400071F1000404DB4FF00044404264EB01010E
:10075000141E73F1000405DB1C464FF000435242A7
:1007600063EB0403994208BF904230BD01F000439F
:1007700030B421F0004150EA010206D00A0DA2F582
:100780006072C1F31301002A02DC30BC0020704704
:10079000440F44EAC104C100E01830BC00EBC25071
:1007A00000F035B8002801DBC0F10040002901DB72
:1007B000C1F1004181427047002801DBC0F10040D7
:1007C000002901DBC1F1004188427047202A04DB87
:1007D000203A00FA02F1002070479140C2F1200354
:1007E00020FA03F3194390407047202A06DBCB1709
:1007F000203A41FA02F043EAE07306E041FA02F3DC
:10080000D040C2F1200291400843194670470029A8
:10081000A8BF7047401C490008BF20F00100704786
:1008200010B4B0FA80FC00FA0CF050EA010404BFE6
:1008300010BC704749B1CCF1200421FA04F411FA3C
:100840000CF118BF012121430843A3EB0C01CB1D80
:100850004FEA00614FEA102042BF002010BC7047F1
:1008600000EBC35010440029A4BF10BC7047401CCB
:10087000490008BF20F0010010BC704710B54100CE
:100880000CD0C0F3C751962908DC7E2909DC06DBB1
:10089000410204D000F0004040F07E5010BD002026
:1008A00010BDC1F19604C4F1200100FA01F1E0404D
:1008B000FFF7ADFFA04010BD10B5141E73F100048A
:1008C00008DA401C41F1000192185B411A4301D142
:1008D00020F0010010BD2DE9F04D92469B4611B16C
:1008E000B1FA81F202E0B0FA80F220329046FFF7CE
:1008F0006DFF04460F4640EA0A0041EA0B015346E9
:100900005A46084313D0114653EA010019D0C8F1E2
:1009100040025046FFF706FC05460E465046594633
:100920004246FFF753FF084305D0012004E020466C
:100930003946BDE8F08D0020054346EAE0762C43B9
:1009400037430A986305E40AA0EB08000022FD0A79
:1009500044EA47540A3002D500200146E9E7010580
:1009600010196941DDE9084500196941BDE8F04DFC
:10097000A2E72DE9F04D00231A461B1A8A4103DB3A
:1009800000200146BDE8F08DC1F30A52C1F3130106
:1009900041F480154FF0000BD10702D100186D41D2
:1009A000521E0027044640F2FF11384601EB620A4E
:1009B0003E468046024600204FF48011FFF7B2FB0E
:1009C000C2197141BB1846EB0100B4EB030C75EB87
:1009D000000C04D3E41A65EB000517460E462419F3
:1009E00008F101006D4180463428E3DDF91946EB3A
:1009F0000600091BA84103D24FF0FF32134601E065
:100A0000002213461BEB070046EB0A51BDE8F04DF0
:100A1000FFF752BF2DE9F041054621F000400C469A
:100A2000284309D0C4F30A5040F23341884205DD1F
:100A300028462146BDE8F0812846FBE740F2FE311A
:100A4000884210DC0CDB4FEA043040EA155050EAD3
:100A5000053105D0104804F0004101430020E9E7CA
:100A600000200146E6E7A0F233404642C6F14002CC
:100A700028462146FFF7AAFE074688462846214613
:100A80003246FFF74FFB43463A46FFF715FF324623
:100A9000BDE8F041FFF79ABE0000F03F2DE9F047B6
:100AA000C1F30A5401F0004805460027C1F31301C1
:100AB00040F2FF3041F4801684421ADAB4F57F7FA9
:100AC00000DC841EA4F2134462429246284631465A
:100AD000FFF728FB04465246FFF778FE45404E409C
:100AE000354301D0012000E0002044EA000100204D
:100AF0001BE040F2334084421ADCA4F2F332284671
:100B00003146FFF763FE0A4678405140084301D062
:100B1000012000E0002040EA020AA4F233446242CD
:100B200028463146FFF7FEFA5146FFF770FE03E014
:100B3000A4F2334405FA04F057EA080700D0404213
:100B4000BDE8F087064C074D06E0E06840F0010381
:100B500094E8070098471034AC42F6D3FFF7CAFA7E
:100B60003CA100085CA1000870B521F000430343DC
:100B70000CD0C1F30A550024D5EB040564EB040343
:100B8000D617AD1AB34102DB0020014670BD201814
:100B900041EB025170BD0EB5C10F80EAE070084410
:100BA000CA07002140F233438DE80E000A460B4687
:100BB000FFF791FE03B000BD70B5C1F30A5201F01A
:100BC00000450024C1F3130140F2FF3341F48011CA
:100BD0009A4201DA002070BD40F233439A42A2F2F9
:100BE000334203DC5242FFF79DFA00E090402C4371
:100BF000F1D0404270BD00BFFEE770470021074AB8
:100C0000D1610749096941F00201054A11611146A4
:100C10004861096941F0400111617047F00B002003
:100C2000002002400022054BDA61054A126942F0B9
:100C30000102034B1A61018070470000F00B002095
:100C40000020024000201E49C96801F0100139B19E
:100C50001C49C96941F002011A4AD16140F01000F3
:100C60001749C96801F0040139B11649C96941F051
:100C70000101144AD16140F004001149C96901F031
:100C8000010169B10F49C96941F004010D4AD161FF
:100C900000BF0B49C96921F00101094AD16100BFB8
:100CA00000BF40F20111884206D10549C96921F00F
:100CB0000101034AD16101E00149C86000BF7047EA
:100CC00000200240F00B002070B5044600F054FAFA
:100CD000054609E0601C38B124B100F04DFA401B14
:100CE000A04201D9032070BD1248C06800F0010085
:100CF0000028EFD10F48C06800F0200020B100BFED
:100D000020200C49C86000BF0A48C06800F01000ED
:100D100048B90848C06900F0010020B90548C0681A
:100D200000F0040018B1FFF78DFF0120DBE7002081
:100D3000D9E700000020024070B5044600F01CFA1C
:100D400006462546681C10B104480078054400BFDB
:100D500000F012FA801BA842FAD370BD4C000020AC
:100D60002DE9FE4F05468B4617469846012600247E
:100D70000020029000BF2448007E012802D10220FA
:100D8000BDE8FE8F01202049087600BF4CF25030AC
:100D9000FFF79AFF064686BB012D02D10120029083
:100DA00006E0022D02D10220029001E00420029010
:100DB00000241EE02201B946C24648465146FFF7CC
:100DC000B1F980B20190022000FB04B000900199BB
:100DD000FFF728FF4CF25030FFF776FF06460B482E
:100DE000006920F001000949086106B104E0601CB7
:100DF000C4B202988442DDDB00BF00BF002002497C
:100E0000087600BF3046BBE7F00B00200020024010
:100E100000200849096901F0800151B10649054ADD
:100E20005160064951601146096901F0800101B124
:100E3000012070470020024023016745AB89EFCDB8
:100E40002DE9F847034600240020002584460027AA
:100E500000226EE14FF0010808FA02F4D1F8008098
:100E600008EA0400A0427DD1DFF8D0A2D1F80480C6
:100E7000A8EB0A09D0453AD014DCB8F1030F50D0E2
:100E800009DCB8F1000F31D0B8F1010F1CD0B8F176
:100E9000020F49D120E0B8F1110F18D0B8F1120FAC
:100EA00042D11EE0B9F5881F25D006DCB9F5803F98
:100EB00020D0B9F5801F37D11AE0B9F5001F18D03E
:100EC000B9F5041F30D117E0D1F80CC02DE0D1F8EE
:100ED0000C8008F1040C28E0D1F80C8008F1080C13
:100EE00023E0D1F80C8008F10C0C1EE000BF00BF1D
:100EF00000BF00BF00BF00BFD1F80880B8F1000FED
:100F000002D14FF0040C0BE0D1F80880B8F1010FCA
:100F100003D14FF0080C1C6102E04FF0080C5C613B
:100F200003E04FF0000C00E000BF00BFFF2801D835
:100F3000984601E003F104084646FF2802D84FEA2C
:100F4000820803E0A2F108084FEA88084746D6F86D
:100F500000804FF00F0909FA07F928EA09080CFA8E
:100F600007F900E088E048EA0908C6F80080D1F8EF
:100F7000048008F08058B8F1805F7DD100BFDFF8B1
:100F8000C081D8F8188048F00108DFF8B491C9F89A
:100F90001880C846D8F8188008F00108CDF80080FD
:100FA00000BF00BF4FEAB9384FEA920958F82950FC
:100FB0004FEA82784FEA18794FF00F0808FA09F8DB
:100FC00025EA0805DFF87C81434502D14FF000088F
:100FD00016E0DFF87481434502D14FF001080FE0BD
:100FE000DFF86881434502D14FF0020808E0DFF8DE
:100FF0006081434502D14FF0030801E04FF004083F
:101000004FEA82794FEA197908FA09F848EA0505A2
:10101000DFF840814FEA920948F82950D1F804805E
:1010200008F48038B8F5803F0AD1DFF82C81D8F871
:10103000008048EA0008DFF82091C9F8008009E044
:10104000DFF81481D8F8008028EA0008DFF808915A
:10105000C9F80080D1F8048008F40038B8F5003FE2
:1010600010D1DFF8F48008F10408D8F8008048EACD
:101070000008DFF8E49000E05AE009F10409C9F83B
:1010800000800DE0DFF8D08008F10408D8F8008077
:1010900028EA0008DFF8C09009F10409C9F80080C7
:1010A000D1F8048008F48018B8F5801F0ED1DFF85D
:1010B000A88008F10808D8F8008048EA0008DFF89E
:1010C000989009F10809C9F800800DE0DFF88880E0
:1010D00008F10808D8F8008028EA0008DFF87890BE
:1010E00009F10809C9F80080D1F8048008F4001853
:1010F000B8F5001F0ED1DFF8608008F10C08D8F8B1
:10110000008048EA0008DFF8509009F10C09C9F89E
:1011100000800DE0DFF8408008F10C08D8F800806E
:1011200028EA0008DFF8309009F10C09C9F80080BE
:10113000521C102AFFF48EAEBDE8F8870000111093
:101140000010024000080140000C01400010014066
:101150000014014008000140000401400246936869
:101160000B400BB1012000E0002070470AB1016183
:1011700001E00B04036170470148006870470000FC
:1011800044000020034800680349097808440149E5
:1011900008607047440000204C00002010B508484B
:1011A000006840F0100006490860032000F0DEF8F7
:1011B000002000F007F800F02BF8002010BD000020
:1011C0000020024070B504460E4800784FF47A7152
:1011D000B1FBF0F00C490968B1FBF0F5284600F0CE
:1011E00050FC08B1012070BD102C07D2002221460E
:1011F000501E00F07CF80548046001E00120F2E791
:101200000020F0E74C0000205000002048000020A3
:1012100008B500BF2648806940F001002449886174
:101220000846806900F00100009000BF00BF00BFC9
:101230000846C06940F08050C8610846C06900F0A7
:101240008050009000BF00BF032000F08FF8002204
:1012500011466FF00B0000F04AF8002211466FF0C3
:101260000A0000F044F8002211466FF0090000F077
:101270003EF800221146501F00F039F800221146B6
:10128000101F00F034F800221146901E00F02FF8D5
:1012900000221146501E00F02AF800BF0549486898
:1012A00020F0E06040F00070486000BF08BD000022
:1012B000001002400000014000BF00F01F020121A9
:1012C0009140034A430942F8231000BF70470000D1
:1012D00080E100E000BF00F01F02012191404209BF
:1012E000920002F1E022C2F8001100BF70472DE920
:1012F000F05F80460D461646002701F011FB0746B9
:1013000039462A46334601F00700C0F1070ABAF110
:10131000040F02D94FF0040A01E0C0F1070AD146D8
:1013200000F1040ABAF1070F02D24FF0000A01E0FF
:10133000A0F1030AD4464FF0010A0AFA09FAAAF109
:10134000010A0AEA020A0AFA0CFA4FF0010B0BFA38
:101350000CFBABF1010B0BEA030B4AEA0B04214631
:10136000404601F0E5FABDE8F09F000000BF00F044
:101370000702064B19684FF6FF031940044B0B4355
:1013800043EA0221014B196000BF70470CED00E0F9
:101390000000FA0570B504460D4600266248006854
:1013A00000F00700A8420ED25F48006820F0070056
:1013B00028435D4908600846006800F00700A8421D
:1013C00001D0012070BD207800F00200022807D172
:1013D0005648406820F0F000A1680843534948602F
:1013E000207800F0010000285DD06068012806D157
:1013F0004E48006800F4003090B90120E2E76068D0
:10140000022806D14948006800F0007040B9012068
:10141000D8E74648006800F0020008B90120D1E78B
:101420004248406820F00300616808433F49486033
:10143000FFF7A2FE06466068012810D108E0FFF71A
:101440009BFE801B41F28831884201D90320B9E715
:101450003648406800F00C000428F0D123E06068B2
:10146000022810D108E0FFF787FE801B41F2883187
:10147000884201D90320A5E72C48406800F00C0001
:101480000828F0D10FE008E0FFF776FE801B41F25C
:101490008831884201D9032094E72448406800F04D
:1014A0000C000028F0D12048006800F00700A84296
:1014B0000ED91D48006820F0070028431A4908602B
:1014C0000846006800F00700A84201D0012079E733
:1014D000207800F00400042807D11448406820F464
:1014E000E060E168084311494860207800F0080096
:1014F000082808D10D48406820F46050216940EA6E
:10150000C1000A49486000F03DF808494968C1F344
:101510000311074A515CC840064908600020FFF7E4
:1015200051FE00204EE70000002002400010024063
:10153000189F000850000020014800687047000014
:101540005000002000B5FFF7F7FF04494968C1F3D8
:101550000221034A515CC84000BD00000010024057
:10156000289F000800B5FFF7E7FF04494968C1F369
:10157000C221034A515CC84000BD00000010024077
:10158000289F0008F0B585B00FF26C0C9CE8E010C5
:1015900001A8A0E8E0101CA52D68009500210022FC
:1015A000002300240020194D696801F00C05F5B1F5
:1015B000042D02D0082D19D101E0154819E001AD24
:1015C000C1F38346AC5D01F4803555B10F4D6D68B4
:1015D000C5F340451DF805200D4D6543B5FBF2F3FD
:1015E00002E00C4D04FB05F3184602E000BF08487A
:1015F00000BF00BF05B0F0BD0203040506070809DF
:101600000A0B0C0D0E0F101001020000001002401A
:1016100000127A0000093D00F8B504460025207844
:1016200000F00100002878D0F848406800F00C0075
:1016300004280CD0F548406800F00C00082811D1AF
:10164000F248406800F48030B0F5803F0AD1EF489E
:10165000006800F4003000285FD0606800285CD18A
:101660000120F8BD00BF6068B0F5803F06D1E748B3
:10167000006840F48030E549086028E0606858B9A7
:10168000E248006820F48030E049086008460068BD
:1016900020F4802008601AE06068B0F5A02F0BD11C
:1016A000DA48006840F48020D8490860084600689D
:1016B00040F4803008600AE0D448006820F48030AC
:1016C000D24908600846006820F48020086000BF06
:1016D000606888B1FFF750FD054606E0FFF74CFD56
:1016E000401B642801D90320BBE7C848006800F408
:1016F00000300028F2D010E0FFF73EFD054606E07E
:10170000FFF73AFD401B642801D90320A9E7BF4831
:10171000006800F400300028F2D1207800F00200C8
:10172000022857D1B948406800F00C0050B1B748C2
:10173000406800F00C00082818D1B448406800F454
:10174000803098B9B148006800F0020020B12069EB
:10175000012801D0012084E7AC48006820F0F8009F
:10176000616940EAC100A949086033E02069E8B135
:101770000120A7490860FFF7FFFC054606E0FFF7D8
:10178000FBFC401B022801D903206AE79F48006840
:1017900000F002000028F2D09C48006820F0F80019
:1017A000616940EAC1009949086013E00020984946
:1017B0000860FFF7E1FC054606E0FFF7DDFC401B93
:1017C000022801D903204CE79048006800F002008D
:1017D0000028F2D1207800F0080008282DD1A06957
:1017E000B8B101208B490860FFF7C6FC054606E04A
:1017F000FFF7C2FC401B022801D9032031E78348D0
:10180000406A00F002000028F2D0012001F0A6F8A2
:1018100013E000207F490860FFF7AEFC054606E0B4
:10182000FFF7AAFC401B022801D9032019E77748DB
:10183000406A00F002000028F2D1207800F0040095
:10184000042873D100267148C06900F0805070B937
:1018500000BF6E48C06940F080506C49C8610846BE
:10186000C06900F08050009000BF00BF01266A48A8
:10187000006800F48070B0B96748006840F4807078
:1018800065490860FFF778FC054606E0FFF774FC41
:10189000401B642801D90320E3E65F48006800F498
:1018A00080700028F2D000BFE068012806D15748B8
:1018B000006A40F001005549086227E0E06858B925
:1018C0005248006A20F00100504908620846006A48
:1018D00020F00400086219E0E06805280BD14B48AD
:1018E000006A40F00400494908620846006A40F076
:1018F000010008620AE04548006A20F001004349FF
:1019000008620846006A20F00400086200BFE06830
:10191000A0B1FFF731FC054609E0FFF72DFC401BA5
:1019200041F28831884202D903209AE622E0374802
:10193000006A00F002000028EFD012E0FFF71CFC64
:10194000054608E0FFF718FC401B41F28831884249
:1019500001D9032085E62D48006A00F00200002826
:10196000F0D1012E05D12948C06920F080502749C7
:10197000C86100BFE069C8B32448406800F00C00AB
:10198000082860D0E069022848D100202049086674
:10199000FFF7F2FB054606E0FFF7EEFB401B0228CF
:1019A00001D903205DE61948006800F000700028A6
:1019B000F2D1206AB0F5803F07D11448406820F486
:1019C0000030A168084311494860D4E90801084380
:1019D0000E49496821F4741108430C4948600120FC
:1019E0000B490866FFF7C8FB054607E02DE0FFF747
:1019F000C3FB401B022801D9032032E603480068DC
:101A000000F000700028F2D01FE00000001002403B
:101A100000004242800442420070004000200C4915
:101A20000866FFF7A9FB054606E0FFF7A5FB401B8C
:101A3000022801D9032014E60648006800F000706F
:101A40000028F2D101E001200BE6002009E60000A9
:101A50000000424200100240042808D14FF0E0216B
:101A6000096941F004014FF0E022116107E04FF0F5
:101A7000E021096921F004014FF0E0221161704773
:101A8000704770B504462546681EB0F1807F01D3CB
:101A900001200FE0681E4FF0E02148610F214FF058
:101AA000FF3000F045FF00204FF0E0218861072063
:101AB0000861002070BD10B5FFF7E2FF10BD704750
:101AC0007047024600BF92F83C00012801D1022075
:101AD0007047012082F83C0000BF022082F83D00E0
:101AE0001068406820F07000136858601068406803
:101AF0000B681843136858601068806820F08000F5
:101B000013689860106880684B6818431368986081
:101B1000012082F83D0000BF002082F83C0000BF99
:101B200000BFD5E70146022081F83D000868006843
:101B300040F001000A681060012081F83D0000209B
:101B4000704701460868C06840F001000A68D0602C
:101B50000868006840F001000A68106000207047C3
:101B6000704710B5044620680069C0F34000D8B142
:101B70002068C068C0F34000B0B16FF00200216877
:101B80000861012020772068806900F0030018B107
:101B90002046FFF7E5FF05E0204600F0FBF8204671
:101BA00000F006FA0020207720680069C0F380006A
:101BB000D8B12068C068C0F38000B0B16FF00400F5
:101BC00021680861022020772068806900F4407055
:101BD00018B12046FFF7C4FF05E0204600F0DAF810
:101BE000204600F0E5F90020207720680069C0F366
:101BF000C000D8B12068C068C0F3C000B0B16FF0B9
:101C0000080021680861042020772068C06900F07E
:101C1000030018B12046FFF7A3FF05E0204600F0BF
:101C2000B9F8204600F0C4F9002020772068006948
:101C3000C0F30010D8B12068C068C0F30010B0B184
:101C40006FF0100021680861082020772068C069C3
:101C500000F4407018B12046FFF782FF05E02046EF
:101C600000F098F8204600F0A3F9002020772068C3
:101C7000006900F0010058B12068C06800F0010060
:101C800030B16FF0010021680861204600F0F0F9E2
:101C900020680069C0F3C01058B12068C068C0F364
:101CA000C01030B16FF08000216808612046FFF756
:101CB00006FF20680069C0F3801058B12068C06832
:101CC000C0F3801030B16FF04000216808612046F9
:101CD00000F0E0F920680069C0F3401058B12068B6
:101CE000C068C0F3401030B16FF020002168086177
:101CF0002046FFF7E5FE10BD1FB5044606492068E3
:101D0000884208D10120009002200190039069468A
:101D10000248FFF795F81FBD00040040000C014089
:101D200070B504460E46154600BF94F83C000128E5
:101D300001D1022070BD012084F83C0000BF0220C8
:101D400084F83D0035B1042D09D0082D0CD00C2DA0
:101D500014D10EE03146206800F0E8FE0FE0314675
:101D6000206800F015FF0AE03146206800F048FFC7
:101D700005E03146206800F079FF00E000BF00BFB9
:101D8000012084F83D0000BF002084F83C0000BF23
:101D900000BFCFE7704710B504460CB9012010BD55
:101DA00094F83D0028B9002084F83C00204600F05B
:101DB0000DF8022084F83D00211D206800F06EFE21
:101DC000012084F83D000020E9E7000038B5044612
:101DD0002068B0F1804F16D100BF1848C06940F0AC
:101DE00001001649C8610846C06900F00100009072
:101DF00000BF00BF002211461C20FFF778FA1C200C
:101E0000FFF768FA19E00E492068884215D100BF33
:101E10000A48C06940F004000849C8610846C06922
:101E200000F00400009000BF00BF002211461E20F9
:101E3000FFF75DFA1E20FFF74DFA38BD0010024093
:101E40000008004070B504460D46164600BF94F8E1
:101E50003C00012801D1022070BD012084F83C0023
:101E600000BF022084F83D0036B1042E1BD0082E9E
:101E700031D00C2E5ED145E02946206800F056FE98
:101E80002068806940F008002168886120688069C6
:101E900020F004002168886120688069296908436E
:101EA0002168886147E02946206800F071FE2068BB
:101EB000806940F40060216888612068806920F4AE
:101EC00080602168886120688069296940EA012072
:101ED000216888612FE02946206800F091FE206883
:101EE000C06940F008002168C8612068C06920F01E
:101EF00004002168C8612068C06929690843216815
:101F0000C86118E02946206800F0B0FE2068C0696A
:101F100040F400602168C8612068C06920F48060D6
:101F20002168C8612068C069296940EA01202168E8
:101F3000C86100E000BF00BF012084F83D0000BF81
:101F4000002084F83C0000BF00BF85E710B50446C0
:101F50000CB9012010BD94F83D0028B9002084F888
:101F60003C00204600F00CF8022084F83D00211DC2
:101F7000206800F093FD012084F83D000020E9E78F
:101F800008B5094A016891420DD100BF0749C969E6
:101F900041F00201054AD1611146C96901F002010F
:101FA000009100BF00BF08BD0004004000100240C7
:101FB0007047000030B504460D46012229462068CE
:101FC00000F0A6FD0A492068884201D1012000E006
:101FD000002028B12068406C40F40040216848642B
:101FE0002068006840F0010021680860002030BDD2
:101FF000002C014030B504460D46002229462068D9
:1020000000F086FD19492068884201D1012000E0D6
:10201000002090B100BF2068006A41F21111084011
:1020200050B92068006A8910084028B92068406CBF
:1020300020F400402168486400BF00BF2068006AA7
:1020400041F21111084050B92068006A8910084017
:1020500028B92068006820F001002168086000BFEE
:10206000012084F83D00002030BD0000002C01401C
:1020700010B504460548844202D100F087F904E017
:102080000348844201D100F0D3FA10BDF00A0020C9
:10209000700B0020704710B504460CB9012010BD2C
:1020A000A06900B100E000BF94F8390028B9002011
:1020B00084F83800204600F027F8242084F83900FE
:1020C0002068C06820F400502168C860204600F0F5
:1020D000F5FD2068006920F49040216808612068BF
:1020E000406920F02A00216848612068C06840F4F7
:1020F00000502168C8600020E063202084F8390087
:1021000084F83A000020CAE710B586B004461849A2
:102110002068884229D100BF1648806940F4804079
:10212000144988610846806900F48040019000BF2E
:1021300000BF48150290022003900320059002A9D9
:102140000D48FEF77DFE4FF4806002900020039062
:10215000049002A90848FEF773FE002211462520CC
:10216000FFF7C5F82520FFF7B5F806B010BD000051
:102170000038014000100240000801402DE9F843FA
:1021800004460D4616461F464FF0000994F83900E4
:1021900020285CD105B116B90120BDE8F88300BF45
:1021A00094F83800012801D10220F6E7012084F8D4
:1021B000380000BF0020E063212084F83900FEF7DA
:1021C000DBFF8146A684E6842BE0E08C401EE084A1
:1021D000A068B0F5805F16D14B46002280212046D2
:1021E000009700F04FFE08B10320D6E7A846B8F8E4
:1021F0000000C0F3080021684860206908B9AD1CE0
:102200000FE06D1C0DE04B46002280212046009718
:1022100000F038FE08B10320BFE715F8010B216874
:102220004860E08C0028D0D14B4600224021204657
:10223000009700F027FE08B10320AEE7202084F8C5
:10224000390000BF002084F8380000BFA5E7022055
:10225000A3E700BFFEE7000070B547480478182CDC
:1022600006D0212C0FD03F2C05D07E2C0FD106E0BC
:1022700003F0F0FE7EE0012007F00CFE7AE0022081
:1022800007F008FE76E0082007F004FE72E07F2CDD
:102290005EDDA4F184001D2859D2DFE800F00F13A1
:1022A000585858585858585858581C2024282C30DA
:1022B0003438583C4044484C50585400202007F0D3
:1022C000E9FD44E02D48007800F0200010B14020E6
:1022D00007F0E0FD3BE0012007F0D2FD37E00220EF
:1022E00007F0CEFD33E0042007F0CAFD2FE0082000
:1022F00007F0C6FD2BE0102007F0C2FD27E02020EC
:1023000007F0BEFD23E0402007F0BAFD1FE080206B
:1023100007F0B6FD1BE0012007F09EFD17E002204C
:1023200007F09AFD13E0042007F096FD0FE0082067
:1023300007F092FD0BE0102007F08EFD07E0202053
:1023400007F08AFD03E0402007F086FD00BF10E0A3
:102350000B480078401CC5B2812D00D100250948EA
:102360000078854205D00848054909784454044856
:10237000057000BF00BF70BD24000020DC000020FD
:10238000090000200A000020B404002010B59B487A
:10239000007800B110BD9A48C17B9A48007861F37B
:1023A00002009849087001F001FA9748007820F07F
:1023B00007009349897B08439349087004F052FC55
:1023C00001F001FA01208D4908708D48406A00280B
:1023D00062D18E4800788E49097888424FD08D4866
:1023E0008B49097800EBC10085494862496A4888F1
:1023F00001F014FA8248406A0088814988830846BF
:10240000807F496A0979884214D07D48406A007902
:102410007B4988770846807F00EB80007E4901EB8E
:102420008000774908620846006AC06840088860F2
:10243000486008607248006A007C78490978484022
:102440006F49C8730846006A0068496A4979C840FC
:102450006B4908610846006A4068496A4979C84082
:10246000674948610846006A8068496A4979C840F6
:1024700063498861496A887906F03CFA0CE006F005
:10248000E1FA5F48006A407C10B1002006F032FAA1
:10249000042007F0FFFC7DE761480078012801D1A6
:1024A00004F020FB0020564988730846006809693B
:1024B00008445349086008460068096AC9688842A8
:1024C0001DD94F48807B40F001004D498873084674
:1024D0000068096AC968401A494908600846006AE4
:1024E000007C00F0010028B14E480068401E4D49B4
:1024F000086004E04B480068401C4A4908604048B6
:102500004168406908443E49486008464068096A95
:10251000C96888421DD93A48807B40F0020038499A
:10252000887308464068096AC968401A3449486097
:102530000846006A007C00F0020028B13948406873
:10254000401E3849486004E036484068401C354920
:1025500048602B488168806908442949886008469A
:102560008068096AC96888421DD92548807B40F087
:1025700004002349887308468068096AC968401ABC
:102580001F4988600846006A007C00F0040028B1FA
:1025900024488068401E2349886004E02148806800
:1025A000401C2049886020480078042806D114483F
:1025B000807B1D4989790840114988731048808BB8
:1025C000401E0F4988830846808B58B90020486216
:1025D0000F480078401CC0B20D490870062801D190
:1025E000002008700648807B10490978484004495B
:1025F000887300200149087000BFCBE61900002055
:102600009006002026000020250000201500002054
:102610001400002060060020FC05002018000020A7
:1026200000000020F0000020DC0000201700002047
:1026300010B501F0C3F8054801780548007861F34A
:1026400002000349087004F00DFB10BD17000020C4
:102650002500002000B585B000BF3848806940F0F3
:102660001000364988610846806900F0100000902B
:1026700000BF00BF00BF0846806940F020008861AD
:102680000846806900F02000009000BF00BF00BF36
:102690000846806940F0040088610846806900F0BF
:1026A0000400009000BF00BF00BF0846806940F0F2
:1026B000080088610846806900F00800009000BFAB
:1026C00000BF0022FC211E48FEF750FD00224FF201
:1026D0000A011C48FEF74AFD4FF40040019000201B
:1026E00002900120039001A91748FEF7A9FBFC20E6
:1026F000019001200290002003900220049001A983
:102700000F48FEF79DFB4FF20A0001900120029056
:10271000002003900220049001A90A48FEF790FBD4
:102720004FF4CC600190002002900120039001A999
:102730000448FEF785FB05B000BD00000010024014
:1027400000080140000C01400010014000B589B0B4
:102750004FF080401649086000204860002114486E
:102760008160C16001618161FFF715FB18B1C02173
:1027700010A000F0C3FB00200790089007A90C48A8
:10278000FFF79FF918B1C7210AA000F0B7FB00209E
:102790000090019002900490042269460448FFF7DB
:1027A000BFFA18B1D02103A000F0A8FB09B000BD0A
:1027B000F00A00202E2E2F5372632F6D61696E2E4A
:1027C0006300000000B589B01A481B490860012069
:1027D000486000211848816048F69F41C16000218F
:1027E00001618161FFF7B2FB18B1E42113A000F091
:1027F00085FB00200790089007A90F48FFF761F9B3
:1028000018B1EB210DA000F079FB602000900020B2
:10281000019002900490082269460748FFF712FBD6
:1028200018B1F42105A000F069FB0348FFF764FA32
:1028300009B000BD00040040300B00202E2E2F53A5
:1028400072632F6D61696E2E6300000000B589B060
:102850001848194908600020486000211648816026
:10286000C16001618161FFF796FA20B14FF4857173
:1028700012A000F043FB00200790089007A90E4823
:10288000FFF71FF920B140F211110CA000F036FB48
:1028900000200090019002900490042269460648AE
:1028A000FFF73EFA20B14FF48D7104A000F026FB33
:1028B00009B000BD00080040700B00202E2E2F53E1
:1028C00072632F6D61696E2E6300000010B50C48B5
:1028D0000C4908604FF4E1304860002109488160EC
:1028E000C16001610C21416100218161C161FFF77B
:1028F000D2FB20B140F22D1103A000F0FFFA10BD71
:1029000000380140B00B00202E2E2F5372632F6D24
:1029100061696E2E6300000000BFFEE77047000093
:1029200002480068C0F30220704700000CED00E090
:1029300010B5002807DA0A07140E054A00F00F0345
:102940001B1FD45403E00A07130E024A135410BD90
:1029500018ED00E000E400E07047000008B5084909
:102960000968C9084FF47A72B1FBF2F14143009152
:1029700000BF00BF00994A1E00920029F9D108BD8E
:1029800050000020704710B5FEF7FCFBFFF793F8EE
:1029900010BD000010B590B0012006900004079013
:1029A0000020089001200A9002200D90C1030E9192
:1029B0004FF4E0110F9106A8FEF72EFE18B19421F6
:1029C00014A000F09BFA0F2001900220029000203A
:1029D00003904FF48060049000200590022101A82C
:1029E000FEF7D8FC18B1A2210AA000F087FAFEF782
:1029F000A3FD4FF47A71B0FBF1F42046FFF741F8E4
:102A00000420FFF729F800221146501EFEF76FFC44
:102A100010B010BD2E2E2F5372632F6D61696E2E74
:102A2000630000001148006840F001000F49086091
:102A3000084640680E4908400C494860084600684E
:102A40000C490840094908600846006820F48020C5
:102A500008600846406820F4FE0048604FF41F00FC
:102A60008860C803044908607047000000100240F5
:102A70000000FFF8FFFFF6FE08ED00E010B5024889
:102A8000FFF76FF810BD0000F00A002010B50248F3
:102A9000FFF767F810BD0000700B002000220268ED
:102AA000184B984208D0B0F1804F05D0164B984291
:102AB00002D0164B984203D122F070024B681A43A1
:102AC000104B984208D0B0F1804F05D00E4B984281
:102AD00002D00E4B984203D122F44072CB681A43C5
:102AE00022F080024B691A4302608B68C3620B6854
:102AF0008362044B984201D10B6903630123436154
:102B000070470000002C0140000400400008004015
:102B100030B50023012404FA01F3046A9C430462E3
:102B2000046A02FA01F52C43046230BD30B500247A
:102B300000220023056A25F001050562026A436848
:102B4000846924F0700424F003040D682C4322F0FF
:102B500002028D682A430D4DA84206D100BF22F023
:102B60000802CD682A4322F00402084DA84207D18A
:102B700023F4807323F400734D692B438D692B4339
:102B8000436084614D684563026230BD002C0140A2
:102B900030B5002400220023056A25F010050562E7
:102BA000026A4368846924F4E04424F440740D68A4
:102BB00044EA052422F020028D6842EA05120F4DF6
:102BC000A84207D100BF22F08002CD6842EA051278
:102BD00022F04002094DA84209D123F4806323F476
:102BE00000634D6943EA85038D6943EA85034360C9
:102BF00084614D688563026230BD0000002C014095
:102C000030B5002400220023056A25F48075056292
:102C1000026A4368C46924F0700424F003040D6858
:102C20002C4322F400728D6842EA05220E4DA84220
:102C300007D100BF22F40062CD6842EA052222F4E7
:102C40008062094DA84209D123F4805323F4005334
:102C50004D6943EA05138D6943EA05134360C46176
:102C60004D68C563026230BD002C014030B50022C2
:102C700000230024056A25F480550562036A446830
:102C8000C26922F4E04222F440720D6842EA052251
:102C900023F400538D6843EA0533074DA84204D15D
:102CA00024F480444D6944EA85144460C2614D684F
:102CB0000564036230BD0000002C01402DE9F041A5
:102CC000044600252068006920F44050E16808436C
:102CD000216808612169A0680843616908430543C8
:102CE0002068C06841F20C61884328432168C860AD
:102CF0002068406920F44070A16908432168486158
:102D00005F49206888425CD1FEF72CFC00EBC001D3
:102D100001EB001061688900B0FBF1F6FEF722FCC0
:102D200000EBC00101EB001061688900B0FBF1F01D
:102D30006421B0FBF1F000EBC00101EB0010A6EB49
:102D40008000322101EB00106421B0FBF1F000F0B3
:102D5000F006FEF707FC00EBC00101EB0010616814
:102D60008900B0FBF1F06421B0FBF1F006EB001636
:102D7000FEF7F8FB00EBC00101EB00106168890071
:102D8000B0FBF1F7FEF7EEFB00EBC00101EB00102A
:102D900061688900B0FBF1F06421B0FBF1F000EB59
:102DA000C00101EB0010A7EB8000322101EB001005
:102DB0006421B0FBF1F000F00F003044216888601E
:102DC0005BE0FEF7BFFB00EBC00101EB00106168A8
:102DD0008900B0FBF1F6FEF7B5FB00EBC00101EB9B
:102DE000001061688900B0FBF1F06421B0FBF1F0E4
:102DF00000EBC00101EB0010A6EB8000322101EBDB
:102E000000106421B0FBF1F000F0F006FEF79AFB31
:102E100000EBC00101EB001061688900B0FBF1F02C
:102E20006421B0FBF1F006EB0016FEF78BFB00EB24
:102E3000C00101EB001061688900B0FBF1F7FEF7FB
:102E400081FB00EBC00101EB001061688900B0FB61
:102E5000F1F06421B0FBF1F000EBC00101EB0010D8
:102E6000A7EB8000322101EB00106421B0FBF1F0F0
:102E700000F00F00304421688860BDE8F081000058
:102E8000003801402DE9F04104460D4617469846AA
:102E9000069E21E0701CF8B12EB1FEF76DF9A0EB93
:102EA0000800B04218D92068C06820F4D0702168AA
:102EB000C8602068406920F0010021684861202036
:102EC00084F8390084F83A0000BF002084F8380004
:102ED00000BF0320BDE8F081206800682840A842B8
:102EE00001D1012000E00020B842D3D00020F1E75A
:102EF00010B500F0AFFB10BD00BFFEE700BFFEE75E
:102F0000490050EAC12018BF04204A0D18BF40F004
:102F1000010040F2FF72B2EB515F08BF40F00200C7
:102F2000012808BF052070472DE9F74F144694B0DB
:102F30000021C4E902111599079121F00045C94902
:102F40008D4206DC1599C4E9000117B00020BDE8E8
:102F5000F08FC549DFF814A3A9423CDD0799C44EA0
:102F60000029C44FC44A1599534619DDFDF772FA7A
:102F7000554506D0C14AC24BFDF76CFAC4E90001C1
:102F80000AE04FF0D352BE4BFDF764FA32463B469F
:102F9000FDF760FAC4E9000117B00120BDE8F08F29
:102FA000FDF7B7F9554506D0B44AB54BFDF7B1F971
:102FB000C4E900010AE04FF0D352B14BFDF7A9F983
:102FC00032463B46FDF7A5F9C4E9000117B04FF0C2
:102FD000FF30BDE8F08FAB49A942159978DB21F0AD
:102FE000004183468846A84AA84BFDF739FA0022DB
:102FF000A74BFDF78EF9FDF7DFFD0990FDF7CBFD3F
:1030000006460F469C4A5346FDF72AFA43465A465F
:10301000FDF723FA80468A46984A994B304639464E
:10302000FDF71EFA2A0D01250B9242465346FDF785
:1030300014FA032DC4E9000139D00B98C1F30A51E9
:10304000401A05EB45111139814230DA9148C346E7
:10305000784400EB0510CDF80CA00C90D0E90023CB
:1030600030463946FDF7FCF902460B4604910690BE
:1030700058460399FDF7EEF980468A4602460B460C
:1030800058460399FDF7E6F9049B069AFDF7E2F925
:1030900083460C9803913946D0E902233046FDF768
:1030A000DFF95A46039BFDF7D5F96D1CBDE707987C
:1030B0000028A2BF099817B0BDE8F08F616881F0C1
:1030C00000416160099817B04042BDE8F08FFFE70A
:1030D00084461598C1F31301C0F30A50A0F2F530ED
:1030E0004FEA601800F01F06C6F120001390002080
:1030F0000690079041F4801E05206D4676B1664A21
:1031000008EB00017A4452F8213002EB8101B34010
:103110004A68139922FA01F1194305E05F4908EB67
:103120000002794451F82210A1FB0E27A1FB0C13D9
:103130001A449A4234BF0123002303EB070A05EB2C
:103140008003D3E901B70F448F4234BF012100212E
:1031500093448B4411B1934502D903E0934501D2C6
:10316000012100E00021C3E901B7514445F82010D6
:10317000011EA0F10100C1DC0298059F00F1005082
:10318000800F12900298DDE903568000FDF703FDE1
:10319000834628460D91FDF752FA6FF01D02FDF7A8
:1031A000E3FCCDE90E013046FDF749FA6FF03D0230
:1031B000FDF7DAFC80468A463846FDF740FA6FF0A4
:1031C0005D02FDF7D1FC0746424653461191FDF7DB
:1031D000A0F8DDE90E23FDF79CF85A460D9BFDF79C
:1031E00098F800250E465A4628460D9BFDF732F901
:1031F000DDE90E23FDF72EF942465346FDF72AF985
:103200003A46119BFDF729F9DFF898A0244A534666
:10321000FDF726F907468846234A244B31462846BF
:10322000FDF71EF93A464346FDF773F80746884610
:103230004FF0A842534631462846FDF711F93A4669
:103240004346FDF766F8159A12F0004F04D0129A23
:1032500081F0004152421292C4E90001129817B065
:10326000BDE8F08FFB21E93F7CD90240FB21F93F0B
:103270007370032E8A19A33B000040543163621A15
:1032800061B4D03DFB21394183C8C96D305FE43F53
:103290000000E03FAC6F0000286F00000A6F0000E4
:1032A000182D4454FB21F93D3326A611460B113C41
:1032B0002DE9FF4D21F0004807460C46B8F1795F33
:1032C00008DAFDF779FC002801BF0020324904B07C
:1032D000BDE8F08D3A46234610461946FDF7C0F882
:1032E000054602462D480E460B460621784400F05E
:1032F0005DF82A463346FDF7B3F8DDE9022382463E
:103300008B4638462146FDF7ABF804460F46524639
:103310005B4628463146FDF7A3F822463B46FDF7BB
:1033200099F807468A464FF0FF3228463146FDF7A6
:103330001BFC1B4A90450ADA3A465346FDF78AF8C9
:1033400004B00022BDE8F04D134BFDF786B8154AD6
:103350004245A8BFA8F500154FF00004B8BF124DB4
:1033600022462B46FDF776F80646884622462B462F
:1033700000200949FDF76EF804460D463A465346CB
:1033800030464146FDF766F804B022462B46BDE8BC
:10339000F04DFDF762B800000000F03FD86C00006F
:1033A0003333D33F0000E93F0000D23F2DE9F04125
:1033B0004F1E00EBC7010446D1E9000115461E4629
:1033C00037F006020DD02A463346FDF749F87F1E36
:1033D00004EBC703D3E90023FCF79BFF37F0060299
:1033E000F1D1022F25D0042F13D0062F18BFBDE82E
:1033F000F0812A463346FDF733F8D4E90A23FCF777
:1034000088FF2A463346FDF72BF8D4E90823FCF75A
:1034100080FF2A463346FDF723F8D4E90623FCF75C
:1034200078FF2A463346FDF71BF8D4E90423FCF75E
:1034300070FF2A463346FDF713F8D4E90223FCF760
:1034400068FF2A463346FDF70BF8D4E90023BDE8B0
:10345000F041FCF75EBF00002DE9FF4D054621F06D
:10346000004084B00C46B0F1795F0BDA2846FFF7D4
:1034700047FD042808BF00F071F8284608B021462F
:10348000BDE8F08D2A460B461046FCF7E9FF0646DC
:103490000F462A462346FCF7E3FF804626488A4625
:1034A00032463B4605217844FFF780FF834610985B
:1034B000029160B3214A224B40465146FCF7D0FFAF
:1034C000CDE900015A4640465146029BFCF7C8FF31
:1034D00082468846DDE906014FF0FF32FDF744FBE6
:1034E00052464346FCF7B6FF32463B46FCF7B8FF70
:1034F000DDE90623FCF7AEFFDDE90023FCF7AAFFB8
:1035000008B02A462346BDE8F04DFCF7A6BF0B469F
:103510005A4630463946FCF7A3FF084A084BFCF7E9
:10352000F8FE42465346FCF79BFF08B02A46234666
:10353000BDE8F04DFCF7EDBE1E6C00004955555539
:103540005555C5BF0122FDF70FBBFCF7E2BE0022B7
:10355000134610461146FCF7F5BF0000024A002052
:103560001107FDF701BB000001FDFFFF02E008C8E5
:10357000121F08C1002AFAD170477047002001E0ED
:1035800001C1121F002AFBD17047000001490860E9
:10359000704700005400002010B502210348FDF7D9
:1035A000DDFD012800D110BD0020FCE7000C01402A
:1035B00010B5012202210248FDF7D8FD10BD000020
:1035C000000C014010B5002202210248FDF7CEFD9B
:1035D00010BD0000000C01402DE9F041154C164DC6
:1035E0006E142846FDF70AFB20E020884FF6FF7195
:1035F000884208D034F8027B3A460023294601204D
:10360000FDF7AEFB00E0A41C20884FF6FF71884256
:1036100008D034F8027B3A460023A91C0120FDF7AC
:103620009FFB00E0A41C301F86B22D1D002EDCDCA9
:10363000BDE8F081F006002000FC010801460148C9
:10364000405C7047F0060020014A115470470000AA
:10365000F006002008B5104800680068C0F340106C
:1036600060B10D480068C06800F0200030B10A4821
:103670000068406809490870FEF7EEFD00BF0020B1
:1036800000900548006800680090034800684068A2
:10369000009000BF00BF08BDB00B00202400002038
:1036A00004480068C06840F0200002490968C8600A
:1036B00070470000B00B002001B54FF4FA730122EF
:1036C00069460248FEF75AFD08BD0000B00B002015
:1036D00010B50C4800680C49B0FBF1F0401E0B49D6
:1036E0000968886200BFFE2008490968C862FE2197
:1036F0000648C16000BF0821FEF77CFC0348FEF7C6
:1037000011FA10BD5000002040420F00300B002085
:1037100010B5044607480068C46314B900F00EF8F9
:1037200006E008210348FEF745FC01200249087025
:1037300010BD0000300B00202B00002010B5082128
:103740000348FEF757FC00200249087010BD000036
:10375000300B00202B00002010B5482011490968CB
:10376000886200BF00200F490968C86200210D4827
:10377000C16000BFFEF7E5F91C20FDF79DFD482064
:1037800009490968886200BF002007490968C862C2
:1037900000210548C16000BFFEF7D3F91E20FDF7E8
:1037A0008BFD10BDF00A0020700B00206FF00100AF
:1037B0000149096808617047700B002010B51E2090
:1037C000FDF77AFD10BD10B51E20FDF783FD10BD7D
:1037D00010B51C20FDF770FD10BD000070B505464A
:1037E0000C4600BF681E0B490968C8620949C860D9
:1037F00000BF6FF001000968086100BF601E064944
:103800000968C8620449C86000BF1C20FDF762FD5A
:1038100070BD0000700B0020F00A002000BF411EA8
:10382000034A1268D162024AD16000BF70470000AB
:10383000F00A00202DE9F84F04460D4621F0004023
:1038400000917349814211DC7249884201DC06D142
:103850002CB120462946BDE8F84FFFF773BE6E48ED
:10386000002DCCBF6D496E49BDE8F88F6D4981428E
:1038700011DD6D498142D8BF4FF0FF366DDD204626
:103880002946FFF73DFB042808BFFFF767FE2046E7
:103890002946BDE8F88F6549654F25F0004581420E
:1038A00033DD6449814219DD002632464FF0804302
:1038B00020462946FCF72DFD80468A4601222046F7
:1038C0002946FDF751F900223B46FCF7C3FD42466D
:1038D0005346FCF737FE04460D463EE00126002223
:1038E000BA463B4620462946FCF713FD80460F4664
:1038F0000022534620462946FCF7ACFD42463B4693
:10390000FCF720FE04460D4627E04B4981421BDDB3
:10391000DFF828A102260022534620462946FCF75C
:103920009FFD00223B46FCF7F4FC80460F46002238
:10393000534620462946FCF78DFD42463B46FCF7A0
:1039400001FE04460D4608E0032622462B460020D1
:103950003B49FCF7F7FD04460D4622462B46104630
:103960001946FCF77DFD8B46824602460B46FCF766
:1039700077FD07460246334888460B4606217844C1
:10398000FFF714FD52465B46FCF76AFD82462E485F
:103990008B463A46434605217844FFF707FD3A46F1
:1039A0004346FCF75DFD02460B46002E5046594645
:1039B0000CDAFCF7AEFC22462B46FCF751FD01B0B9
:1039C00022462B46BDE8F04FFCF747BDFCF7A1FCB3
:1039D00022462B46FCF744FD1C4A7A4402EBC60300
:1039E000D3E90023FCF736FD22462B46FCF732FDD7
:1039F000174A7A4402EBC603D3E90023FCF72DFDF6
:103A0000009A002AB8BF81F00041BDE8F88F00009D
:103A1000000010440000F07F182D4454FB21F93FB2
:103A2000FB21F9BF0000DC3F0000203E0000F33F17
:103A30000000F03F0000E63F008003400000F83F38
:103A40000000F0BF16660000D4650000726500003B
:103A50003A6500002DE9F04D9446CCF1000423F0C6
:103A600000464CEA0404524F46EAD4749A4688460B
:103A700021F00042BC4206D8454240EA050442EA31
:103A8000D474BC4204D9BDE8F04D6246FFF75DBD79
:103A9000AAF14055A5F17F6555EA0C040BD002242C
:103AA00004EAAA74434DDFF810E144EAD87452EAFC
:103AB000000B04D00CE0BDE8F04DFFF7BBBE002CBE
:103AC00014BF012CBDE8F08D022C30D0032C32D075
:103AD00056EA0C0B0AD0BE4220D1BA4209D126F0D8
:103AE000804622F080423346114617E000291ADB57
:103AF00025E0DFF8C8B0FB44002C04BFDBE900017F
:103B0000BDE8F08D012C02BFDBE9000181F000412E
:103B1000BDE8F08D022C0AD0032C0CD0BA4212D191
:103B2000B8F1000F0BDA23482549BDE8F08D28468F
:103B30002449BDE8F08D28467146BDE8F08D1D484A
:103B40002149BDE8F08D921B12153C2AC4BF1948CB
:103B50001D490EDCBAF1000FBEBF12F13C0F002070
:103B6000014606DB6246FCF7EDFC21F00041FFF761
:103B700061FE002C08BFBDE8F08D012C04BF81F070
:103B80000041BDE8F08D114A114B022C07D0FCF723
:103B900061FC2A46BDE8F04D0A4BFCF75BBCFCF724
:103BA00059FC2A46BDE8F04D064BFCF756BC000018
:103BB0000000F07F182D4454FB2109C0FE64000072
:103BC000FB21F9BFFB210940FB21F93F075C1433BE
:103BD00026A6A13C2DE9F041C1F30A52A2F2FF361C
:103BE0002F4A304B0D460446142E2FDA002E12DADF
:103BF000FCF78FFB00221346FCF7A0FD4CD2002DF2
:103C0000BCBF4FF00045002446DB55EA040018BF56
:103C1000254D19D140E0DFF894C02CFA06F705EAEB
:103C2000070C5CEA040C08BFBDE8F081FCF771FBEF
:103C300000221346FCF782FD2ED2002D03DD4FF447
:103C40008010F0400544BD43002425E0332EC8BF5A
:103C5000BDE8F081A6F1140C4FF0FF3727FA0CF7FE
:103C60003C4208BFBDE8F081FCF7F7FB0022134699
:103C7000FCF764FD10D2002D0DDD142E08BF6D1C65
:103C800009D0C6F13400012101FA00F02044A0421D
:103C900038BF6D1C0446BC4329462046BDE8F08170
:103CA0009C7500883CE4377E0000F03FFFFF0F006A
:103CB0002DE9F05F05464FF00009002416E055F8A5
:103CC0002400FCF70FFD074600221346FCF71EFDFB
:103CD0000AD055F8241055F82400FCF7AAFA074634
:103CE0004946FCF74EFA8146601CC4B2032CE6DB61
:103CF0004846FCF7F7FC824604F03EFE0746FCF718
:103D000035FD81464846FCF7EDFC07463A460B4632
:103D100000200B49FCF716FC8246FCF727FD0646FF
:103D2000002408E055F824003146FCF782FA45F8F3
:103D30002400601CC4B2032CF4DB4846BDE8F09FAD
:103D40000000F03F10B50024FFF726FC08B144F056
:103D50000104204610BD10B500F018F810BD000099
:103D600010B504460848407800B110BD14B900F001
:103D70000DF804E004F0400008B1FFF719FC002042
:103D80000149C87200BFF0E7DC00002010B5FFF762
:103D900019FC10BD10B5044605480078022800D172
:103DA00010BD02F089FF2046FFF7DAFF00BFF7E7FA
:103DB000DC00002000B5244B21F0004287B09A427D
:103DC000DCBF0022134629DD204B9A4208D140B9BE
:103DD0004FF00100FFF7DAFBFFF7B9FB07B000BDBA
:103DE00003DBFFF7AFFB07B000BD02AAFFF79CF8AB
:103DF00010F0030104BF0DF1080C9CE80F000DD07A
:103E0000012001290ED0022914D00DF1080C0090D8
:103E10009CE80F00FFF720FB07B000BDFFF748FA52
:103E200007B000BD0DF1080C00909CE80F00FFF7F3
:103E300013FB05E00DF1080C9CE80F00FFF738FAC2
:103E400007B081F0004100BDFB21E93F0000F07F99
:103E500010B5044602E00120FCF76EFF201EA4F11D
:103E600001018CB2F7D110BD2DE9F05F81460C46FF
:103E700016494846FCF7DDF98346FCF733FC074654
:103E8000FFF7A8FE0546FCF714FC1FFA80FA13E0C2
:103E90000F48407808B1BDE8F09F14B903F070FAFC
:103EA00007E003F031F80A48807800F0020000B122
:103EB000F1E73220FCF740FFBAF10000AAF101015E
:103EC0001FFA81FAE4DC00BFE5E700000000A04132
:103ED000DC00002010B504462046FFF7AFFB10BD04
:103EE00070B5104D0024FCF793FF00BF07E00E48AB
:103EF000204490F8000C05F8010B601C84B2B4F566
:103F0000806FF4DB074800780A280AD0054D0024AA
:103F100004E0FF2005F8010B601C84B2B4F5806F4B
:103F2000F7DB70BDF006002000F0010870B5044614
:103F30000D4629462046FFF787FB70BD2DE9F0416D
:103F4000C1F30A52A2F2FF362F4A304B0D46044607
:103F5000142E2FDA002E12DAFCF7DBF900221346BA
:103F6000FCF7ECFB4CD2002DA4BF0024254647DA19
:103F700025F00040204318BF254D41D018E0DFF860
:103F800094C02CFA06F705EA070C5CEA040C08BF9B
:103F9000BDE8F081FCF7BDF900221346FCF7CEFB2B
:103FA0002ED2002D03DA4FF48010F0400544BD43BB
:103FB000002425E0332EC8BFBDE8F081A6F1140C23
:103FC0004FF0FF3727FA0CF73C4208BFBDE8F081FD
:103FD000FCF743FA00221346FCF7B0FB10D2002D89
:103FE0000DDA142E08BF6D1C09D0C6F13400012172
:103FF00001FA00F02044A04238BF6D1C0446BC43C7
:1040000029462046BDE8F0819C7500883CE4377E57
:104010000000F0BFFFFF0F0001B5AEB04021F8482F
:10402000FCF797F8F649491CF64802680A604268AE
:104030004A6002890A81807A887200202C90289038
:10404000279026902590249023902E98007824285D
:1040500009D1239840F0010023900120491E4870A7
:104060000021E748817000201E901D90239800F0E9
:10407000010010B10320219001E00020219093E283
:104080009DF884102E98405C20902098412802DBF7
:1040900020985A2802DD01202FB000BD9DF8840031
:1040A000401CC0B221901FAA21A92E9803F026FA25
:1040B00008B90220F0E71F9805F0F6FE1490FCF70F
:1040C000E4FAC0B21E901E98FCF7B4FA11901F9942
:1040D000FCF7ACF8CC491290FCF7ABF8139004F065
:1040E00035F81490FCF7D1FA80B21D90209847283B
:1040F00002D04D2873D130E11E982B2870D024DCDB
:1041000012286ED010DC032873D006DC00286DD096
:1041100001286CD0022868D16AE0042840D00A281F
:1041200032D01128F7D195E01C282ED006DC1328B8
:104130007DD014287CD01528EDD1B8E01E2825D0DC
:10414000262857D02828E6D1BAE03B2871D00ADCCF
:10415000A0F131000A2848D2DFE800F0B6E5E5E535
:1041600023D1D2D3D4D55B287FD006DC3D286FD0B5
:10417000502846D05A28CED176E05C2807D05D285A
:1041800067D05E28C7D188E000BF00BF00BF1D9880
:1041900028B92C9808B118207EE701202C9000BF88
:1041A00000BF0020229096491E9808701E981C2877
:1041B00005D01E981E2802D01E985C280ED11D988E
:1041C00020B11D980A2801D0142065E78C48017899
:1041D0001D9808448A49087000201D90A5E034E12C
:1041E00071E038E005E001E001E09CE000BF00BFC5
:1041F00000BF00BF2C9808B118204DE702202C907A
:1042000000BF012022907E491E9848701E982628E3
:104210001CD11D9814280DD01D981E280AD01D9859
:10422000282807D01D98322804D0142034E713E042
:104230003CE069E00A211D9890FBF1F06430704980
:10424000497808446E49487000201D906DE00CE0EC
:1042500062E021E000BF00BF022022901E981138CA
:10426000C1B26748417160E000BF1D9838B90320B2
:1042700022901E985A38C1B2614801710BE00420A7
:1042800022901D980A2802D11E985A2801D1142084
:1042900002E700201D9048E000BF052022901E98F4
:1042A000C0F15E00C1B2564881703EE000BF0620FA
:1042B00022901E98C0F11500C1B25148C17034E07F
:1042C0000720229031E000BF082022902C9808B1EE
:1042D0001820E1E603202C901E98312803D10021FC
:1042E0004748817108E01D980A2803D101214448FC
:1042F000817101E01420CFE600201D9015E000BF81
:1043000000BF00BF00BF00BF092022901E983638B2
:10431000C1B23B48C17108E00A2022901D9808B143
:104320001420B9E601E01420B6E600BF1D9800286D
:1043300001DD1720B0E60121229801FA00F025994D
:10434000084008B11520A7E60121229801FA00F0E3
:104350002599084380B2259025E11D98002801DDAC
:10436000172099E61E98042827D007DC78B1012889
:104370000ED002280DD0032852D11DE005281DD0F3
:10438000082833D0092832D01E2849D102E000BFC6
:1043900000BF00BF0B2022901E9810B1012805D14C
:1043A00003E003211648017204E003E014491E985B
:1043B000087200BF00BF35E000BF00BF0C20229094
:1043C0001E98032804D0042806D005280CD107E045
:1043D00010210B48817207E020210948817203E017
:1043E00000210748817200BF00BF1BE000BF0D2005
:1043F00022901E98082809D009280FD10AE0000051
:104400009C000020580000200000C8424021FA48CB
:10441000417203E00021F848417200BF00BF01E093
:10442000142039E600BF0121229801FA00F02599F5
:10443000084008B115202FE60121229801FA00F06A
:104440002599084380B22590ADE02098463815287C
:1044500075D2DFE800F00B7F7F111B252F7F357FA2
:10446000407F464C527F7F7F606A7500002022901B
:10447000E1491F98C8606FE001202290DE481F9933
:104480000161269840F00100269065E0022022900C
:10449000D9481F994161269840F0020026905BE0C0
:1044A00003202290D4481F998161269840F004008F
:1044B000269051E004202290CF491E9808774BE0C7
:1044C000052022901F9805F0EFFC1490FCF7C4F82B
:1044D000C949086240E006202290C7481F994162FE
:1044E0003AE007202290C4481F99816234E00820F6
:1044F0002290C1481F99C1622EE009202290BF4935
:104500001F98FCF759F901D22620C5E5BA491E9833
:1045100081F8300020E00A202290B7481F994163BB
:10452000279840F00100279016E00B202290B24817
:104530001F998163279840F0020027900CE009E062
:104540000C202290AC481F99C163279840F00400CA
:10455000279001E014209FE500BF0121229801FA75
:1045600000F02499084008B1192095E5012122980E
:1045700001FA00F040F26131084058B11F98FCF791
:10458000B1F800221346CDE91201FCF7BFF801D2C1
:10459000042081E50121229801FA00F024990843C2
:1045A00080B2249000BF00BF9DF884102E98405C1C
:1045B00000287FF465AD279818B12C9808B902201F
:1045C0002C90249800F0200030B18B48006A8C4970
:1045D000884201DD1B205FE5239800F00100E0B177
:1045E000249800F0010008B9162055E58248C078EB
:1045F000012848D18048C0680F90FCF773F84FF04D
:104600006632804BCDE91001FBF72AFFCDE912019C
:10461000FCF7ACF87849C86035E077488078012825
:104620000FD12C9802282ED17348407850282AD0D8
:104630007148407810B3249800F00100F0B91620BA
:104640002AE571484078C8B9249800F00100B0B15B
:104650006948C078012816D16748C0680F90FCF7F8
:1046600041F84FF06632674BCDE91001FBF7F8FED9
:10467000CDE91201FCF77AF85F49C86003E06248AF
:1046800000695D49C860249800F4807018B95E48DC
:10469000C1685948C16258480078042809D1249853
:1046A00000F0400008B91C20F6E4249820F04000F7
:1046B00024905148407910B101280ED106E0002025
:1046C0002B9001202A90022029900DE002202B90AF
:1046D00000202A900120299006E001202B90022042
:1046E0002A900020299000BF00BF4348C0780128CD
:1046F00029D100201C9023E001211C9801FA00F030
:1047000027990840C0B13C4834301C9950F821002A
:104710000F90FBF7E7FF4FF066323A4BCDE91001FF
:10472000FBF79EFECDE91201FCF720F80146324866
:1047300034301C9A40F822101C98401CC0B21C90C7
:104740001C980328D8DB2C98032809D12A488079A3
:10475000012805D1279880F0040008B125209BE4AA
:10476000294A283207CA19AB07C3259800F40070FC
:10477000A0B12148C079062801DD1D208CE4224823
:1047800081791D48C079814208D01B48C07919A998
:10479000149003F07AFD08B907207DE416480078EC
:1047A0000A2802D05C287DD19FE0279808B91A20FA
:1047B00072E4249800F0500008B91C206CE40E4804
:1047C000406A139005F070FB1490FBF75EFFC0B2D7
:1047D00028902898062801DD1D205DE40648007F0A
:1047E000142815D00448007F02280FD1249800F027
:1047F000800068B114204FE49C00002000007F433B
:10480000809698006666394058000020142043E4E2
:10481000249820F0500024902898002804DD28983F
:10482000401EC0B2289002E0FE48C0792890FD49A1
:104830001031289803F029FD08B907202CE4002046
:104840001C904EE001211C9801FA00F027990840C5
:1048500048B3F448007F142837D1F3481C9950F826
:1048600021001390F048183850F821001290139945
:10487000FBF7D9FC1490EB4834301C9950F8210018
:10488000014613901498FBF7CEFC0146E548103022
:104890001C9A40F822101C9802281ED1E248343895
:1048A000006C01E076E018E01490DE4810301C99AE
:1048B00050F8210013901499FBF7B5FC0146D94834
:1048C00010301C9A40F8221007E0D64834301C996A
:1048D00050F82120243840F821201C98401CC0B2F8
:1048E0001C901C980328ADDB1CE1279808B91A20FE
:1048F00052E400201C9049E001211C9801FA00F0CC
:1049000027990840A8B319A91C9851F820001390C2
:10491000C54818381C9950F8210012901399FBF7DC
:1049200082FC1490BF4834301C9950F82100014695
:1049300013901498FBF777FC0146BA4834301C9A60
:1049400040F822101C9802281CD1B7483438006C5B
:104950001490B44834301C9950F8210013901499E5
:10496000FBF761FC0146AF4834301C9A40F8221036
:1049700008E0FFE7AC481C9950F82120A9483430E2
:1049800040F821201C98401CC0B21C901C980328A1
:10499000B2DBC7E02C9803286FD02798F0B3002033
:1049A0001C9067E001211C9801FA00F0279908404B
:1049B00048B99D4818381C9950F82120994834303E
:1049C00040F8212052E09748007835284ED095488D
:1049D0000079B0BB94481C9950F8210019A9139094
:1049E0001C9851F8200012901399FBF7CAFB149001
:1049F0008C4834301C9950F82100014613901498CB
:104A0000FBF7BFFB0146874834301C9A40F8221060
:104A10001C9802282AD18448343800E02DE0006C2C
:104A20001490804834301C9950F821001390149948
:104A3000FBF7A7FB01467B4834301C9A40F8221054
:104A400014E0FFE7784818381C9950F821001490BA
:104A50007448343050F8210013901499FBF791FBFF
:104A60000146704834301C9A40F822101C98401CB3
:104A7000C0B21C901C98032894DB6A480078282850
:104A800042D006DC1C2809D01E2808D0262847D191
:104A900039E035283AD0662842D136E000BF614877
:104AA00000781C2807D15F491031062003F0EDFB88
:104AB00048B907200DE45B491031072003F0E5FBFE
:104AC00008B9072005E42798D0B100201C9013E016
:104AD00001211C9801FA00F02799084040B952487A
:104AE00018381C9950F821204E48103040F82120E9
:104AF0001C98401CC0B21C901C980328E8DB01E005
:104B000000202C900CE000BF0AE009E04548407806
:104B100028B144484078012801D01E2004E400BF99
:104B200000BF00BF00BF3F484078502804D12798FD
:104B300000280BD01F2006E42C98022806D1394803
:104B4000407820B927980028F8D12C9009E2354800
:104B5000C0681190FBF7C6FD00221346CDE9120193
:104B6000FBF7D4FD01D116205BE42E4840788C2859
:104B70007ED006DC01280BD002280ED003280BD1F2
:104B800010E08D2875D08E2875D08F28F7D1C7E119
:104B9000279808B900202C90E2E1239840F0040007
:104BA000239000BF279808B91A203AE401212B98D6
:104BB00001FA00F001222A998A40104327990840FF
:104BC00008B920202DE4184818382B9950F82100F6
:104BD00012901448343050F8210011901299FBF7CC
:104BE00022FB1490104818382A9950F8210012908E
:104BF0000C48343050F8210011901299FBF713FB48
:104C00001390249800F08000A0B3249820F0800036
:104C100024900C220349343103481838FBF7A4FAD6
:104C200030B903E09C0000208C00002021206CE4BF
:104C3000F548C078012811D1F348806A0D90FBF740
:104C400051FD4FF06632F14BCDE90E01FBF708FC48
:104C5000CDE91001FBF78AFDEB49886213990846FC
:104C6000FBF7E7FA0B90FBF73DFDCDE90E0103E002
:104C70005BE154E1A6E059E114990846FBF7D9FA43
:104C80000790FBF72FFDCDE90A01DF48806A03900A
:104C9000FBF728FDCDE90601DB48806A0190FBF7B0
:104CA00021FD0022DA4BCDE90201FBF7D9FBCDE96A
:104CB0000401DDE90623FBF7D3FBCDE90801DDE9BB
:104CC0000A23FBF7C7FBCDE90C01DDE90E23FBF757
:104CD000C1FBCDE91001FBF749FD129000211298AC
:104CE000FBF760FD01D222200FE4DDE9131000F094
:104CF00057FC0B90FBF7F6FCCDE90E011298FBF781
:104D0000F1FCCDE90A0103F037FE81F00041CDE965
:104D10000C01DDE90E23FBF715FCCDE91001FBF7D3
:104D200025FD1290B8484078032803D1129880F0EE
:104D300000401290B448806A00211190FBF732FDC8
:104D400009D2129880F000401290AF48806A80F03B
:104D50000041AD488162DDE91210FBF76AFA0C9060
:104D60001499FBF763FA0D90FBF7BCFC0022A94BEA
:104D7000CDE90E01FBF774FBCDE91001FBF7F6FC62
:104D80000146A14810302B9A40F82210129914982D
:104D9000FBF74FFA0C901399FBF7F3F90D90FBF723
:104DA000A1FC00229B4BCDE90E01FBF759FBCDE99D
:104DB0001001FBF7DBFC0146934810302A9A40F8BB
:104DC0002210ABE001212B9801FA00F001222A9970
:104DD0008A4010432699084008B9232005E4249806
:104DE00020F00E0024908848C078012829D10020A6
:104DF0001C9023E001211C9801FA00F0269908403C
:104E0000C0B1814810301C9950F821000B90FBF77D
:104E100069FC4FF066327D4BCDE90C01FBF720FBBE
:104E2000CDE90E01FBF7A2FC0146774810301C9A31
:104E300040F822101C98401CC0B21C901C980328FB
:104E4000D8DB714810302B9950F8210001461090A2
:104E50001498FBF7E8F914906B4810302A9950F831
:104E60002100014610901398FBF7DDF91390DDE95E
:104E7000131000F095FB1290634810302A9950F8F7
:104E800021001090604810302B9950F821000F90AD
:104E9000109900F085FB5C4988620846806A0146EB
:104EA0000C901298FBF7BFF90D90FBF71BFC21F05B
:104EB0000041CDE90E01FBF759FC11901198FBF769
:104EC00011FC554A554BCDE90E01FBF737FC24D2B6
:104ED0001198FBF707FC00224E4BCDE90E01FBF7C2
:104EE0002DFC01D221203AE44748806A0990FBF763
:104EF000F9FB4B4A4B4BCDE90A01FBF7B1FACDE97F
:104F00000E011198FBF7EEFBCDE90C01DDE90E2354
:104F1000FBF714FC01D2212021E400BF20E000BFF8
:104F2000239840F01000239000BF00BF364840781F
:104F30008E2803D0344840788F2803D1239840F03E
:104F400008002390279808B91A2008E40C222E495B
:104F500034313548FBF708F908B921200EE400BFC9
:104F600000BF239800F0010020B1249820F0210018
:104F7000249004E040F221312498884324902C9816
:104F800018B1249820F4E0502490249808B12420EB
:104F90000EE416A81590002115980160416081600B
:104FA000239800F0010070B3259820F0490008B163
:104FB000102012E414480078352804D012480078F4
:104FC00008B1102009E418481C38C16815984160E0
:104FD00015481C38407A14491C39097A08438DF861
:104FE0006000094916A800F0F7FA1490149840B927
:104FF0000D491C390448D0E90D23C06BC1E90723D2
:10500000486214981AE411E09C000020666639405A
:10501000000010400000E03F7B14AE47E17A743F8F
:10502000FCA9F1D24D62503F74000020FE4890F878
:10503000480000F0020088B3FC48407801280BD0FB
:10504000FA484078022807D0F8484078032803D06F
:10505000239840F040002390279838B12C980228DC
:1050600004D1239840F08000239020E0F048407A5B
:1050700010281CD1EE480078012807D0EC480078B1
:10508000022803D0EA480078032808D1239800F0CA
:10509000400018B1239840F02000239007E02398A7
:1050A00000F0400018B9239840F020002390DF481A
:1050B000006ADF498861DD4880784870084640789A
:1050C00028B11598007A40F0080115980172D74868
:1050D000C068D74908610846016915980160D3483E
:1050E000C06A1490D248C06813901499FBF75AFB19
:1050F00003D1239800F02000F0B1CD48407AB8B138
:10510000239800F0800098B9239800F0400030B157
:10511000C748407A0021149003F01CFC08E0C34803
:10512000C06A1490C248407A1390149903F012FC9C
:10513000BE48C06ABE49C860239800F0400018B954
:10514000BB48C16815984160B84890F83000B8492C
:1051500008750846417AB548807A81420CD0159886
:1051600040681490B148807A1390149903F0F2FBD0
:10517000AE48817AAE4841721598007AAC49497AB6
:10518000084315990872AA48017AA848407A8142D2
:1051900012D0A648407A1490FEF7FCFDA348407A4E
:1051A00018B90020A249087206E0A148007A9F4978
:1051B000497A08439E4908721598007A9C49097AF1
:1051C00008431599087299480078042804D1974833
:1051D000406A149000F064FE944840799449087144
:1051E0009248C07888702C98032818D18F4880790D
:1051F00048710846407910B900218C48C1638B483A
:10520000C06B14908A48006C13901499FBF7CAFA8B
:1052100005D08648C06B8649086404F011FE8448B6
:1052200081798248C07981420CD08048C079804918
:1052300088710846DDE91A13199AC0E90B138262D6
:1052400004F0FEFD794800797949C8707748007804
:1052500026283FD006DC0A280BD01C281ED01E288A
:1052600057D11CE028283BD05C283FD0662850D17D
:1052700047E06E491031289803F04BFA6C48817969
:105280002898814209D16A496848D0E90423806995
:10529000C1E90A23086304F0D3FD3AE000BF159882
:1052A000007A40F00101159801722C9820B15F48F6
:1052B0003430159900F020FE5C481030159900F04C
:1052C0001BFE5B495948D0E904238069C1E90723E3
:1052D00048621EE056491C31062003F01AFA18E015
:1052E00053491C31072003F014FA12E050494F488B
:1052F000D0E90D23C06BC1E90D23C86304F0A0FD04
:1053000007E04B48002141638163C16304F098FDCD
:1053100000BF00BF454840784549087008460078FE
:1053200050285AD02C98022857D1002014900846B3
:105330000078012805D13D483430159900F0DCFD96
:105340003AE03B48007858B91598007A40F00101DE
:105350001598017235483430159900F0CDFD2BE0D9
:1053600033480078022803D031480078032816D14A
:105370002398C0F38000DDE92A322999CDE9012381
:10538000CDE903102948806A284B1033284A1C3283
:10539000009003F12400159900F09CFB0CE0159897
:1053A000007A40F004011598017220483430239AA5
:1053B000159900F0DFFD1490149840B91C491B4862
:1053C000D0E90D23C06BC1E90723486204E01498BB
:1053D000012801D100F064F800BF1448007A144994
:1053E000C8710846C07938B301F066FC1048C0792E
:1053F000032809D10F480078022838D0082004F08B
:1054000049FD01F0BDFF32E001200949087000208C
:105410000871C87048708871487208726420054924
:10542000C8710872487208E0A00500209C000020A6
:1054300058000020DC0000201CE00846007802280C
:1054400012D00D4880790C492831149002F01DFFCC
:1054500008B9072048E404F0F3FC0021084603F0F3
:105460004FFA0020FEF77CFC082002F059F90020DA
:105470000149C871002037E45800002010B54421CC
:105480000648FAF766FE05498879283102F0FDFEE4
:1054900010B9072002F0E8FD10BD00005800002000
:1054A00010B50249024804F0E3FA10BDF0000020F4
:1054B00074000020014609B901207047012901D17B
:1054C0000220FAE70420F8E7014609B901207047F5
:1054D000012901D10220FAE70420F8E7FEF700FDD8
:1054E00002F086FE02F0B2FE04F07CFA04F0B2FC98
:1054F000224800210160416081600020204908703D
:10550000204890F8480000F0100008B10120087011
:1055100000BF1B4804781421FAF71BFE18480470DA
:1055200064201749C8710872487217480021016049
:1055300041608160002015490870154908701549BF
:105540000870154908701549087002F06FFEFFF7E2
:1055500095FF03F0B7F9FEF7FEFB00F043FA01F008
:10556000C0FA01F0A1F804F0E3F801F0BBF8FFF78E
:1055700097FF02F0FDFA01F00FFFCAE7F0000020EC
:10558000DC000020A0050020FC000020000000201E
:105590000100002002000020030000200400002081
:1055A0002DE9F84F0446894649464846FAF741FE38
:1055B000834621462046FAF73CFE59460090FAF70A
:1055C000E0FD8246FBF78EF8074603F0D5F9054665
:1055D000FBF7CCF8BDE8F88F70B504460D46E868D7
:1055E0002060207A40F004002072104890F84800B3
:1055F00000F0200030B105F1340004F0F9F908B1F1
:105600000F2070BD214605F1340000F075FC0848FC
:10561000007848B900F0FAFF30B120200449087042
:1056200003F04CFA04F0EAF80020EAE7A0050020B5
:10563000DC0000202DE9FF5F82468946DFF874B068
:10564000002430E059F824000021FBF7ABF828D003
:1056500059F824105AF82400FAF71DFE0190FBF7C0
:1056600041F821F0004807465846FBF73BF83A4618
:105670004346CDE90201FBF749F803D25846FBF750
:1056800031F80AE059F824105AF82400FAF703FE1A
:105690000746FBF727F821F000410546FBF766F8BF
:1056A0008346601CC4B2032CCCDB584604B0BDE872
:1056B000F09F00009976967E7047002070470000AA
:1056C0002DE9F04F93B08046BF48407810B113B039
:1056D000BDE8F08F0DF140090020C9F80000C9F8BD
:1056E0000400C9F80800062089F8080003200F907C
:1056F0000026002436E02046FFF7E6FE0EA90855F6
:105700000120A04000EA080050B3B04951F824003D
:10571000FAF7E8FF0022AE4BCDE90001FAF7A0FE50
:10572000CDE904013046FAF7DDFFCDE90201DDE9FC
:105730000423FBF703F803D23046FAF7D3FF0AE05D
:10574000A24951F82400FAF7CDFF0022A04BCDE981
:105750000401FAF785FECDE90601FBF707F80646D6
:10576000601CC4B2032CC6DB012598482438D0F84D
:1057700050A000BF97490BA804F07AF90027002039
:10578000099000242EE00120A04000EA080038B370
:105790000998401CC0B2099000208E4941F82400AD
:1057A0008A48243890F849100120A040014051B1A6
:1057B0002DB186F000400BA941F824000DE00BA8A4
:1057C00040F8246009E01DB10BA840F8246004E013
:1057D00086F000400BA941F824000EA8005D0743A5
:1057E000601CC4B2032CCEDB0998FAF728FFCDE980
:1057F000000103F0C1F8CDE904015046FAF772FF49
:10580000CDE90201DDE90423FAF72AFECDE906011C
:10581000FAF7ACFF82466C488771C9F800A0494688
:105820000BA800F08FFC04206749087103F046F9CB
:1058300003F0E4FF00BFB5B1FFF73FFF0A9000247B
:105840000DE00EA8005D384038B10120A0400A9953
:10585000084010B10EA8005D8743601CC4B2032C41
:10586000EFDB5948877103F029F95B48007800F0B5
:10587000340050B3584890F800B00BF0100010B14D
:10588000062004F0F3FA0BF0200010B1072004F01A
:10589000EDFA3DB9FFF711FF00EA080010B108204A
:1058A00004F0E4FA2DB10BF0040010B1092004F06B
:1058B000DDFA4A48007820B100F0CCFB01F060FD31
:1058C00005E7042004F0C8F803E007F0070000280B
:1058D000B1D100BF03F02CFF3C492439B1F854008A
:1058E000FEF7B6FA0DB9012000E000200546A5B18B
:1058F00036492439886DFAF7F5FE0022384BCDE998
:105900000401FAF7ADFDCDE90601FAF72FFF0646CF
:105910002E482438D0F84CA004E02C482438866D5A
:10592000D0F850A00F98411EC9B20F9100283FF740
:1059300021AF002440E00120A04000EA0800C8B3E5
:105940002248243890F849000121A1400840C0B104
:105950001E4A243A916D243252F82400FAF711FCC1
:1059600005901A48243850F824100598FAF761FC7D
:105970008346FAF7B7FECDE9060100F035F8089046
:1059800014E012482438806D80F0004005900F48E4
:10599000243850F824100598FAF74BFC8346FAF7A0
:1059A000A1FECDE9060100F01FF80890094908980A
:1059B00041F82400601CC4B2032CBCDB0020024967
:1059C000087100BF83E60000DC000020C405002051
:1059D0000000F8BFF00000200100002002000020BD
:1059E00000001440704770472DE9F047064688468E
:1059F000FBF710F804460D4632464346FAF72DFDF4
:105A000018F0004FDFF88C80DFF88CA0234B06469F
:105A10000F464FF000020AD0FAF778FE0AD90022AA
:105A2000534630463946FAF789FE1BD212E0FAF7A0
:105A30006DFE08D20022434620462946FAF70AFDA9
:105A400004460D460EE00022534630463946FAF72A
:105A500075FE07D80022434620462946FAF759FC2E
:105A600004460D460E4A0F4B20462946FAF766FEBD
:105A700006D300220C4B20462946FAF747FE02D2F5
:105A80000120FDF783FD20462946BDE8F047FBF7DE
:105A900005B800000000F03F0000E03F0000E0BF5C
:105AA0000000C0FFFFFFDF410000E0C110B5FBF7C1
:105AB00075FBFCF76FFFFCF7CDFDFCF707FFFCF76C
:105AC00081FEFCF7C3FEFCF741FEFFF707FD002057
:105AD00010BD00002DE9F04F99B08146884614466C
